export const fTransactionRequest = {
  nonce: 6,
  gasPrice: '0x012a05f200',
  gasLimit: '0x5208',
  to: '0xb2bb2b958AFa2e96dab3f3Ce7162b87daEa39017',
  value: '0x2386f26fc10000',
  data: '0x',
  chainId: 3
};

export const fSignedTx =
  '0xf86b0685012a05f20082520894b2bb2b958afa2e96dab3f3ce7162b87daea39017872386f26fc10000802aa0686df061021262b4e75eb1608c8baaf043cca2b5ac68fb24420ede62d13a8a7fa035389237414433ac06a33d95c863b8221fe2c797a9c650c47a555255be0234f3';
