export const fTransactionRequest = {
  nonce: 6,
  gasPrice: '0x012a05f200',
  gasLimit: '0x5208',
  to: '0xb2bb2b958AFa2e96dab3f3Ce7162b87daEa39017',
  value: '0x2386f26fc10000',
  data: '0x',
  chainId: 3
};

export const fSignedTx =
  '0xf86b0685012a05f20082520894b2bb2b958afa2e96dab3f3ce7162b87daea39017872386f26fc100008029a075b96c4423ea79037099e0f8a0fa7d8538f00c6aaddea26e151320aac65ae3bda05266d81476adedc28c5e769f8bf016de33bdaa49f341435df429e01fe5f9b16e';

export const fSignedTokenTx =
  '0xf86b0685012a05f20082520894e41d2489571d322189246dafa5ebde1f4699f498872386f26fc100008026a086fdf8b0c4ba7e59b93f0a81a9d5083835caf56b17aac3fe251f276a10ef33d4a04ec0c25116937acdec4617182127d9f6a9431e837412babd150331d00d5e0ae9';
